:100000000A128A11292F00308A000408840A820704
:1000100000344C34593443344134203453344F3455
:06002000463454340034A4
:100D340053345434523449344E3447340034A32E9B
:100D4400A32E8316031311081F39031DAA2EAB2EDD
:100D5400A32E1419AE2EAF2EA32EB02E08000A1205
:100D64008A11A1260A128A11831603131114BA2EAA
:100D740083128C1DBE2EBF2EBA2EC02E08000A125E
:100D84008A11A1260A128A11831603131115CA2E79
:100D940083128C1DCE2ECF2ECA2ED02E0800F70023
:100DA4000A128A11A1260A128A11D82E8312031359
:100DB4008C1DDD2EDE2ED82EDF2E77089300080042
:100DC40002300A128A1157270A128A1128300A128D
:100DD4008A1157270A128A110C300A128A115727CE
:100DE4000A128A1108007E088A007F0882000A120B
:100DF4008A11F5260A128A118000840A04087D06E5
:100E040003190034FF0A0319FE0AF92EFB001B2FF5
:100E14007B0884000A128A1103200A128A110A121A
:100E24008A1186270A128A110130FA007A08FB0710
:100E34001B2F7B0884000A128A1103200A128A11CC
:100E44000038031D262F272F0A2F282F08000A12E7
:100E54008A119A260A128A11F0000A128A119B2614
:100E64000A128A11F1000A128A119C260A128A11A6
:100E7400F2000A128A119D260A128A11F3000A123C
:100E84008A119E260A128A11F4000A128A119F26D8
:100E94000A128A11F5000A128A11A0260A128A116E
:100EA400F60083010A128A11B52FF9007908F03986
:100EB400831203138800081188152130F800763056
:100EC400F700F70B632FF80B632F640083120313EF
:100ED40088117908F70003300310F70DFF3E031D56
:100EE4006E2F0310770DF039880008118815213012
:100EF400F8007630F700F70B7D2FF80B7D2F640098
:100F04008312031388110800F9007908F039831259
:100F140003138800081588152130F8007630F7008F
:100F2400F70B922FF80B922F64008312031388118E
:100F34007908F70003300310F70DFF3E031D9D2FC2
:100F44000310770DF0398800081588152130F80052
:100F54007630F700F70BAC2FF80BAC2F640083123C
:100F640003138811080083160313880183120313E3
:100F74008801831603138715071683120313870149
:100F84000A128A11E2260A128A11A8308312031364
:100F94009400831603139101803094003130930040
:100FA40080300A128A1157270A128A1101300A1254
:100FB4008A1108270A128A11DF2F0A128A11B12610
:100FC4000A128A1124300A128A11D1260A128A11AD
:100FD40085300A128A11D1260A128A11C4300A12E3
:100FE4008A11D1260A128A110A128A11C1260A12FA
:0C0FF4008A11DF2FDF2F0A128A1100285B
:02400E003A3F37
:00000001FF
