:060000000A128A11182FFC
:100DDE0053345434523449344E34473400340A12A6
:100DEE008A1108270A128A11831603131114080098
:100DFE000A128A1108270A128A1183160313111573
:100E0E0008000A2F0A2F8316031311081F39031D1A
:100E1E00112F122F0A2F1419152F162F0A2F172FD5
:100E2E00080083132F30FD000630FE00EF30FF0068
:100E3E00283084000A128A112E270A128A11830181
:100E4E000A128A11722F7E088A007F0882000A1207
:100E5E008A112A270A128A118000840A04087D0644
:100E6E0003190034FF0A0319FE0A2E2F83120313EF
:100E7E008C151308F0007008F3000330F2008A306E
:100E8E00F1005630F000F00B4A2FF10B4A2FF20B07
:100E9E004A2F512F7308532F0800F4007018582F43
:100EAE005C2F8312031306145F2F83120313061095
:100EBE00861006157408880006110230F300C7303C
:100ECE00F2008830F100F10B6A2FF20B6A2FF30B50
:100EDE006A2F64000800203084002830F5000408D2
:100EEE00F6000730F7007508840083130008F80039
:100EFE00F50A7608840078088000F60AF70B7A2F38
:100F0E0083160313860183120313860183160313BC
:100F1E00880183120313880183160313871507169E
:100F2E00831203138701F00138300A128A115427F5
:100F3E000A128A11F00106300A128A1154270A1277
:100F4E008A11F00101300A128A1154270A128A11ED
:100F5E00F00180300A128A1154270A128A11F00108
:100F6E000D300A128A1154270A128A110230F70024
:100F7E004530F600A930F500F50BC32FF60BC32F45
:100F8E00F70BC32FCA2F84308316031394006630D9
:100F9E0083120313940083160313910124309300DC
:100FAE008312031393018C11DC2F0A128A11F62679
:100FBE000A128A1183160313111BE62FE72FDC2F5B
:100FCE008312031393010A128A113D270A128A1102
:100FDE00F500750883120313A70014160A128A115E
:100FEE00FF260A128A11DC2FDC2FDC2F0A128A113F
:020FFE000028C9
:00000001FF
